S01600004C43445F345F4249545F4D4F44452E73726563E6
S11300000C942A000C9447000C9447000C9447006D
S11300100C9447000C9447000C9447000C94470040
S11300200C9447000C9447000C9447000C94470030
S11300300C9447000C9447000C9447000C94470020
S11300400C9447000C9447000C9447000C94470010
S11300500C94470011241FBECFE5D8E0DEBFCDBF0E
S113006010E0A0E6B0E0EEE1F3E002C005900D92EE
S1130070AA37B107D9F720E0AAE7B0E001C01D9282
S1130080AB37B207E1F70E946E010C948D010C941A
S1130090000090917A009430B1F598B39F70282FA6
S11300A0207F922B98BB9BB39E7F9BBB9BB39D7F72
S11300B09BBBEFECF7E03197F1F700C000009BB376
S11300C094609BBBF2E0FA95F1F700C09BB39B7F71
S11300D09BBBEFECF7E03197F1F700C0000028B3C9
S11300E0F0E18F9FC0011124922F9F70892B88BB50
S11300F08BB384608BBB32E03A95F1F700C08BB3CD
S11301008B7F8BBB089590917A00983029F588BB3A
S11301108FE097E20197F1F700C000008BB38E7F68
S11301208BBB8BB38D7F8BBBEFECF7E03197F1F793
S113013000C000008BB384608BBB8FE697E101970E
S1130140F1F700C000008BB38B7F8BBBEFE0F7E2CD
S11301503197F1F700C00000089580937A0084304D
S1130160A9F480EF87BB8AB387608ABB82E30E94CD
S1130170490088E20E9449008CE00E94490081E025
S11301800E94490080E80E944900089580917A0005
S1130190883079F487B38FEF87BB8AB387608ABBD3
S11301A088E30E9449008CE00E94490081E00E949B
S11301B04900089590917A009430B1F598B39F70F6
S11301C0282F207F922B98BB9BB391609BBB9BB342
S11301D09D7F9BBB9BB394609BBB32E03A95F1F748
S11301E000C09BB39B7F9BBBEFE8F1E03197F1F735
S11301F000C0000028B3F0E18F9FC0011124922FAA
S11302009F70892B88BB8BB384608BBB32E03A959B
S1130210F1F700C08BB38B7F8BBB8FE99FE0019715
S1130220F1F700C00000089590917A00983029F504
S113023088BBEFE0F7E23197F1F700C000008BB321
S113024081608BBB8BB38D7F8BBB8FEC97E0019769
S1130250F1F700C000008BB384608BBBEFECF7E0D8
S11302603197F1F700C000008BB38B7F8BBB8FE01D
S113027097E20197F1F700C0000008950F931F93D0
S1130280CF938C01C0E003C00E94DA00CF5FF80175
S1130290EC0FF11D80818111F7CFCF911F910F9148
S11302A0089581509FEF960F813039F070F08230BD
S11302B039F0833041F090E008C09FE3960F05C009
S11302C09FE0960F02C09FE4960F892F80680E94DA
S11302D04900089581E00E944900089584E00E9445
S11302E0AD0064E081E00E94510180E690E00E944C
S11302F03E0162E082E00E9451018BE690E00E94A0
S11303003E012FEF89E698E1215080409040E1F7CB
S111031000C000000E946A01E4CFF894FFCF01
S113031E57656C636F6D6520746F004C43442034D5
S10D032E2D626974204D6F646500B0
S9030000FC
