S00B00004144432E7372656351
S11300000C942A000C9447000C9447000C9447006D
S11300100C9447000C9447000C9447000C94470040
S11300200C9447000C9447000C9447000C94470030
S11300300C9447000C9447000C9447000C94470020
S11300400C9447000C9447000C9447000C94470010
S11300500C94470011241FBECFE5D8E0DEBFCDBF0E
S113006010E0A0E6B0E0EAEEF3E002C005900D92E5
S1130070AE36B107D9F720E0AEE6B0E001C01D927C
S1130080AF36B207E1F70E949E010C94F3010C9481
S1130090000090916E009430B1F598B39F70282FB2
S11300A0207F922B98BB98B39E7F98BB98B39D7F7B
S11300B098BBEFECF7E03197F1F700C0000098B37C
S11300C0946098BBF2E0FA95F1F700C098B39B7F77
S11300D098BBEFECF7E03197F1F700C0000028B3CC
S11300E0F0E18F9FC0011124922F9F70892B88BB50
S11300F088B3846088BB32E03A95F1F700C088B3D6
S11301008B7F88BB089590916E00983029F588BB49
S11301108FE097E20197F1F700C0000088B38E7F6B
S113012088BB88B38D7F88BBEFECF7E03197F1F79C
S113013000C0000088B3846088BB8FE697E1019714
S1130140F1F700C0000088B38B7F88BBEFE0F7E2D3
S11301503197F1F700C00000089580936E00843059
S1130160A9F480EF87BB87B3876087BB82E30E94D3
S1130170490088E20E9449008CE00E94490081E025
S11301800E94490080E80E944900089580916E0011
S1130190883079F487B38FEF87BB87B3876087BBD9
S11301A088E30E9449008CE00E94490081E00E949B
S11301B04900089590916E009430B1F598B39F7002
S11301C0282F207F922B98BB98B3916098BB98B34B
S11301D09D7F98BB98B3946098BB32E03A95F1F751
S11301E000C098B39B7F98BBEFE8F1E03197F1F73B
S11301F000C0000028B3F0E18F9FC0011124922FAA
S11302009F70892B88BB88B3846088BB32E03A95A1
S1130210F1F700C088B38B7F88BB8FE99FE001971B
S1130220F1F700C00000089590916E00983029F510
S113023088BBEFE0F7E23197F1F700C0000088B324
S1130240816088BB88B38D7F88BB8FEC97E0019772
S1130250F1F700C0000088B3846088BBEFECF7E0DE
S11302603197F1F700C0000088B38B7F88BB8FE023
S113027097E20197F1F700C0000008950F931F93D0
S1130280CF938C01C0E003C00E94DA00CF5FF80175
S1130290EC0FF11D80818111F7CFCF911F910F9148
S11302A0089581509FEF960F813039F070F08230BD
S11302B039F0833041F090E008C09FE3960F05C009
S11302C09FE0960F02C09FE4960F892F80680E94DA
S11302D049000895CF93DF93CDB7DEB760970FB68B
S11302E0F894DEBF0FBECDBF4AE0BE016F5F7F4F03
S11302F00E94BE01CE0101960E943E0160960FB697
S1130300F894DEBF0FBECDBFDF91CF91089581E099
S11303100E944900089581E886B9089587B98AE161
S11303208A95F1F700C086B1806486B9349BFECF0C
S113033086B1806186B984B195B1089584E00E9444
S1130340AD000E948B0180E00E948E01EC0161E00F
S113035081E00E94510180E690E00E943E01CE01BE
S11303600E946A012FEF89E698E121508040904075
S1130370E1F700C000000E948701E5CFBB274A30A7
S113038031F4992322F4BDE2909581959F4F0C940A
S1130390CA01BB27FB015527AA27880F991FAA1F4B
S11303A0A41710F0A41B83955051B9F7A05DAA338C
S11303B008F0A95DA193009779F7B111B193119257
S11303C0CB010C94E301DC01FC01672F71917723CD
S11303D0E1F7329704C07C916D9370836291AE17FC
S10D03E0BF07C8F30895F894FFCF97
S11103EA4144432056616C7565203D2000009F
S9030000FC
