S00D000055534152542E7372656388
S11300000C942A000C943C000C943C000C943C008E
S11300100C943C000C943C000C943C000C943C006C
S11300200C943C000C943C000C943C000C943C005C
S11300300C943C000C940F020C943C000C943C0077
S11300400C943C000C943C000C943C000C943C003C
S11300500C943C0011241FBECFE5D8E0DEBFCDBF19
S113006020E0A0E6B0E001C01D92A136B207E1F79E
S11300700E94FD010C9482020C940000CF92EF9236
S11300800F93CF93DF93D42FC22FDC01CB01880FC2
S1130090991FAA1FBB1F880F991FAA1FBB1F9C0172
S11300A0AD01220F331F441F551F220F331F441F5E
S11300B0551F60E072E18AE790E00E946002BA0195
S11300C0A901415051096109710981E0C81202C0B6
S11300D080EC8AB98AB188618AB9D13011F480E49C
S11300E080BD013011F480E380BD023011F480E260
S11300F080BDC63011F482E880BDC73011F484E8B5
S113010080BDC83011F486E880BDC93021F484E094
S11301108AB986E880BD82E0E81202C088E080BD2A
S1130120BB27A72F962F852F80BD49B9DF91CF918B
S11301300F91EF90CF9008955D9BFECF8CB90895F9
S11301405F9BFECF8CB108950F931F93CF938C01C7
S1130150C0E003C00E949C00CF5FF801EC0FF11DCA
S113016080818111F7CFCF911F910F910895EF9264
S1130170FF920F931F93CF938C010E94A000F8016C
S11301808083C0E008C0CF5F7801EC0EF11C0E94B0
S1130190A000F7018083F801EC0FF11D80818A3003
S11301A091F71082CF911F910F91FF90EF900895D6
S11301B0909160009430B1F598B39F70282F207F00
S11301C0922B98BB98B39E7F98BB98B39D7F98BBA6
S11301D0EFECF7E03197F1F700C0000098B39460BA
S11301E098BBF2E0FA95F1F700C098B39B7F98BBF7
S11301F0EFECF7E03197F1F700C0000028B3F0E12D
S11302008F9FC0011124922F9F70892B88BB88B3C4
S1130210846088BB32E03A95F1F700C088B38B7FE5
S113022088BB089590916000983029F588BB8FE0D1
S113023097E20197F1F700C0000088B38E7F88BB76
S113024088B38D7F88BBEFECF7E03197F1F700C0FE
S1130250000088B3846088BB8FE697E10197F1F7CB
S113026000C0000088B38B7F88BBEFE0F7E23197D2
S1130270F1F700C000000895809360008430A9F471
S113028080EF87BB87B3876087BB82E30E94D80077
S113029088E20E94D8008CE00E94D80081E00E948D
S11302A0D80080E80E94D8000895809160008830CA
S11302B079F487B38FEF87BB87B3876087BB88E305
S11302C00E94D8008CE00E94D80081E00E94D800EF
S11302D00895909160009430B1F598B39F70282FE1
S11302E0207F922B98BB98B3916098BB98B39D7F65
S11302F098BB98B3946098BB32E03A95F1F700C08C
S113030098B39B7F98BBEFE8F1E03197F1F700C019
S1130310000028B3F0E18F9FC0011124922F9F7039
S1130320892B88BB88B3846088BB32E03A95F1F7A7
S113033000C088B38B7F88BB8FE99FE00197F1F7FA
S113034000C00000089590916000983029F588BBA2
S1130350EFE0F7E23197F1F700C0000088B3816065
S113036088BB88B38D7F88BB8FEC97E00197F1F74A
S113037000C0000088B3846088BBEFECF7E03197DD
S1130380F1F700C0000088B38B7F88BB8FE097E251
S11303900197F1F700C0000008950F931F93CF93C6
S11303A08C01C0E003C00E946901CF5FF801EC0F2B
S11303B0F11D80818111F7CFCF911F910F91089585
S11303C081509FEF960F813039F070F0823039F010
S11303D0833041F090E008C09FE3960F05C09FE092
S11303E0960F02C09FE4960F892F80680E94D80060
S11303F0089581E00E94D8000895789484E00E94D2
S11304003C01CC24C394EE24E39400E028E040E0D3
S113041060E875E280E090E00E943E00FFCF1F920A
S11304200F920FB60F9211242F933F934F935F9324
S11304306F937F938F939F93AF93BF93EF93FF93A8
S1130440CF93DF93CDB7DEB7C456D109DEBFCDBF9E
S1130450CE0101960E94B7008AE00E949C00CE0162
S113046001960E94A40065E081E00E94E001CE01B3
S113047001960E94CD012FEF89E698E1215080403A
S11304809040E1F700C000000E94F901CC59DF4F11
S11304900FB6F894DEBF0FBECDBFDF91CF91FF91B1
S11304A0EF91BF91AF919F918F917F916F915F91E8
S11304B04F913F912F910F900FBE0F901F90189561
S11304C0A1E21A2EAA1BBB1BFD010DC0AA1FBB1F54
S11304D0EE1FFF1FA217B307E407F50720F0A21BC6
S11304E0B30BE40BF50B661F771F881F991F1A9433
S11304F069F760957095809590959B01AC01BD015D
S10B0500CF010895F894FFCF28
S9030000FC
